{
  "contractName": "ServiceRegistry",
  "abi": [
    {
      "anonymous": false,
      "inputs": [
        {
          "indexed": false,
          "internalType": "string",
          "name": "serviceID",
          "type": "string"
        },
        {
          "indexed": false,
          "internalType": "string",
          "name": "changeType",
          "type": "string"
        }
      ],
      "name": "ChangeService",
      "type": "event"
    },
    {
      "anonymous": false,
      "inputs": [
        {
          "indexed": false,
          "internalType": "string",
          "name": "serviceID",
          "type": "string"
        }
      ],
      "name": "NewService",
      "type": "event"
    },
    {
      "constant": true,
      "inputs": [],
      "name": "getServiceList",
      "outputs": [
        {
          "internalType": "string[]",
          "name": "",
          "type": "string[]"
        }
      ],
      "payable": false,
      "stateMutability": "view",
      "type": "function"
    },
    {
      "constant": false,
      "inputs": [
        {
          "components": [
            {
              "components": [
                {
                  "internalType": "string",
                  "name": "id",
                  "type": "string"
                },
                {
                  "internalType": "address",
                  "name": "manager",
                  "type": "address"
                },
                {
                  "internalType": "address",
                  "name": "serviceAccount",
                  "type": "address"
                },
                {
                  "internalType": "string",
                  "name": "companyName",
                  "type": "string"
                },
                {
                  "internalType": "string",
                  "name": "companyEmail",
                  "type": "string"
                },
                {
                  "internalType": "string",
                  "name": "companyContact",
                  "type": "string"
                },
                {
                  "internalType": "string",
                  "name": "description",
                  "type": "string"
                }
              ],
              "internalType": "struct ServiceRegistry.Header",
              "name": "header",
              "type": "tuple"
            },
            {
              "components": [
                {
                  "components": [
                    {
                      "internalType": "string",
                      "name": "image",
                      "type": "string"
                    },
                    {
                      "internalType": "string",
                      "name": "imageAccessUser",
                      "type": "string"
                    }
                  ],
                  "internalType": "struct ServiceRegistry.Container",
                  "name": "ct",
                  "type": "tuple"
                },
                {
                  "components": [
                    {
                      "internalType": "string[]",
                      "name": "location",
                      "type": "string[]"
                    },
                    {
                      "internalType": "string",
                      "name": "accessToken",
                      "type": "string"
                    },
                    {
                      "internalType": "string",
                      "name": "nodeID",
                      "type": "string"
                    },
                    {
                      "internalType": "string",
                      "name": "networkID",
                      "type": "string"
                    },
                    {
                      "internalType": "string",
                      "name": "serviceProtocol",
                      "type": "string"
                    },
                    {
                      "internalType": "string[]",
                      "name": "servicePoints",
                      "type": "string[]"
                    },
                    {
                      "internalType": "string",
                      "name": "servicePort",
                      "type": "string"
                    },
                    {
                      "internalType": "string",
                      "name": "nodeMountService",
                      "type": "string"
                    },
                    {
                      "internalType": "string",
                      "name": "nodeMountETCD",
                      "type": "string"
                    },
                    {
                      "internalType": "string",
                      "name": "secret",
                      "type": "string"
                    }
                  ],
                  "internalType": "struct ServiceRegistry.KubeContext",
                  "name": "kct",
                  "type": "tuple"
                }
              ],
              "internalType": "struct ServiceRegistry.Runtime",
              "name": "runtime",
              "type": "tuple"
            },
            {
              "internalType": "enum ServiceRegistry.State",
              "name": "state",
              "type": "uint8"
            },
            {
              "internalType": "uint256",
              "name": "curReplicas",
              "type": "uint256"
            },
            {
              "internalType": "uint256",
              "name": "serviceLocationIndex",
              "type": "uint256"
            },
            {
              "internalType": "uint256",
              "name": "serviceStartTime",
              "type": "uint256"
            },
            {
              "internalType": "uint256",
              "name": "serviceEndTime",
              "type": "uint256"
            }
          ],
          "internalType": "struct ServiceRegistry.Service",
          "name": "service",
          "type": "tuple"
        }
      ],
      "name": "register",
      "outputs": [],
      "payable": false,
      "stateMutability": "nonpayable",
      "type": "function"
    },
    {
      "constant": false,
      "inputs": [
        {
          "internalType": "string",
          "name": "id",
          "type": "string"
        },
        {
          "internalType": "string",
          "name": "secret",
          "type": "string"
        },
        {
          "internalType": "uint256",
          "name": "replicas",
          "type": "uint256"
        }
      ],
      "name": "startService",
      "outputs": [],
      "payable": false,
      "stateMutability": "nonpayable",
      "type": "function"
    },
    {
      "constant": false,
      "inputs": [
        {
          "internalType": "string",
          "name": "id",
          "type": "string"
        },
        {
          "internalType": "uint256",
          "name": "replicas",
          "type": "uint256"
        }
      ],
      "name": "updateReplicas",
      "outputs": [],
      "payable": false,
      "stateMutability": "nonpayable",
      "type": "function"
    },
    {
      "constant": true,
      "inputs": [
        {
          "internalType": "string",
          "name": "id",
          "type": "string"
        }
      ],
      "name": "getService",
      "outputs": [
        {
          "components": [
            {
              "components": [
                {
                  "internalType": "string",
                  "name": "id",
                  "type": "string"
                },
                {
                  "internalType": "address",
                  "name": "manager",
                  "type": "address"
                },
                {
                  "internalType": "address",
                  "name": "serviceAccount",
                  "type": "address"
                },
                {
                  "internalType": "string",
                  "name": "companyName",
                  "type": "string"
                },
                {
                  "internalType": "string",
                  "name": "companyEmail",
                  "type": "string"
                },
                {
                  "internalType": "string",
                  "name": "companyContact",
                  "type": "string"
                },
                {
                  "internalType": "string",
                  "name": "description",
                  "type": "string"
                }
              ],
              "internalType": "struct ServiceRegistry.Header",
              "name": "header",
              "type": "tuple"
            },
            {
              "components": [
                {
                  "components": [
                    {
                      "internalType": "string",
                      "name": "image",
                      "type": "string"
                    },
                    {
                      "internalType": "string",
                      "name": "imageAccessUser",
                      "type": "string"
                    }
                  ],
                  "internalType": "struct ServiceRegistry.Container",
                  "name": "ct",
                  "type": "tuple"
                },
                {
                  "components": [
                    {
                      "internalType": "string[]",
                      "name": "location",
                      "type": "string[]"
                    },
                    {
                      "internalType": "string",
                      "name": "accessToken",
                      "type": "string"
                    },
                    {
                      "internalType": "string",
                      "name": "nodeID",
                      "type": "string"
                    },
                    {
                      "internalType": "string",
                      "name": "networkID",
                      "type": "string"
                    },
                    {
                      "internalType": "string",
                      "name": "serviceProtocol",
                      "type": "string"
                    },
                    {
                      "internalType": "string[]",
                      "name": "servicePoints",
                      "type": "string[]"
                    },
                    {
                      "internalType": "string",
                      "name": "servicePort",
                      "type": "string"
                    },
                    {
                      "internalType": "string",
                      "name": "nodeMountService",
                      "type": "string"
                    },
                    {
                      "internalType": "string",
                      "name": "nodeMountETCD",
                      "type": "string"
                    },
                    {
                      "internalType": "string",
                      "name": "secret",
                      "type": "string"
                    }
                  ],
                  "internalType": "struct ServiceRegistry.KubeContext",
                  "name": "kct",
                  "type": "tuple"
                }
              ],
              "internalType": "struct ServiceRegistry.Runtime",
              "name": "runtime",
              "type": "tuple"
            },
            {
              "internalType": "enum ServiceRegistry.State",
              "name": "state",
              "type": "uint8"
            },
            {
              "internalType": "uint256",
              "name": "curReplicas",
              "type": "uint256"
            },
            {
              "internalType": "uint256",
              "name": "serviceLocationIndex",
              "type": "uint256"
            },
            {
              "internalType": "uint256",
              "name": "serviceStartTime",
              "type": "uint256"
            },
            {
              "internalType": "uint256",
              "name": "serviceEndTime",
              "type": "uint256"
            }
          ],
          "internalType": "struct ServiceRegistry.Service",
          "name": "service",
          "type": "tuple"
        }
      ],
      "payable": false,
      "stateMutability": "view",
      "type": "function"
    },
    {
      "constant": false,
      "inputs": [
        {
          "internalType": "string",
          "name": "id",
          "type": "string"
        },
        {
          "components": [
            {
              "internalType": "string[]",
              "name": "location",
              "type": "string[]"
            },
            {
              "internalType": "string",
              "name": "accessToken",
              "type": "string"
            },
            {
              "internalType": "string",
              "name": "nodeID",
              "type": "string"
            },
            {
              "internalType": "string",
              "name": "networkID",
              "type": "string"
            },
            {
              "internalType": "string",
              "name": "serviceProtocol",
              "type": "string"
            },
            {
              "internalType": "string[]",
              "name": "servicePoints",
              "type": "string[]"
            },
            {
              "internalType": "string",
              "name": "servicePort",
              "type": "string"
            },
            {
              "internalType": "string",
              "name": "nodeMountService",
              "type": "string"
            },
            {
              "internalType": "string",
              "name": "nodeMountETCD",
              "type": "string"
            },
            {
              "internalType": "string",
              "name": "secret",
              "type": "string"
            }
          ],
          "internalType": "struct ServiceRegistry.KubeContext",
          "name": "kubeContext",
          "type": "tuple"
        }
      ],
      "name": "updateKubeContext",
      "outputs": [],
      "payable": false,
      "stateMutability": "nonpayable",
      "type": "function"
    },
    {
      "constant": false,
      "inputs": [
        {
          "internalType": "string",
          "name": "id",
          "type": "string"
        },
        {
          "components": [
            {
              "internalType": "string",
              "name": "image",
              "type": "string"
            },
            {
              "internalType": "string",
              "name": "imageAccessUser",
              "type": "string"
            }
          ],
          "internalType": "struct ServiceRegistry.Container",
          "name": "container",
          "type": "tuple"
        }
      ],
      "name": "updateContainer",
      "outputs": [],
      "payable": false,
      "stateMutability": "nonpayable",
      "type": "function"
    },
    {
      "constant": false,
      "inputs": [
        {
          "internalType": "string",
          "name": "id",
          "type": "string"
        }
      ],
      "name": "pauseService",
      "outputs": [],
      "payable": false,
      "stateMutability": "nonpayable",
      "type": "function"
    },
    {
      "constant": false,
      "inputs": [
        {
          "internalType": "string",
          "name": "id",
          "type": "string"
        }
      ],
      "name": "stopService",
      "outputs": [],
      "payable": false,
      "stateMutability": "nonpayable",
      "type": "function"
    },
    {
      "constant": false,
      "inputs": [
        {
          "internalType": "string",
          "name": "id",
          "type": "string"
        },
        {
          "internalType": "uint256",
          "name": "curIndex",
          "type": "uint256"
        }
      ],
      "name": "updateServiceLocation",
      "outputs": [],
      "payable": false,
      "stateMutability": "nonpayable",
      "type": "function"
    },
    {
      "constant": true,
      "inputs": [
        {
          "internalType": "string",
          "name": "id",
          "type": "string"
        }
      ],
      "name": "getServiceLocation",
      "outputs": [
        {
          "components": [
            {
              "internalType": "string",
              "name": "serviceProtocol",
              "type": "string"
            },
            {
              "internalType": "string",
              "name": "servicePoint",
              "type": "string"
            },
            {
              "internalType": "string",
              "name": "servicePort",
              "type": "string"
            }
          ],
          "internalType": "struct ServiceRegistry.CurrentLocation",
          "name": "location",
          "type": "tuple"
        }
      ],
      "payable": false,
      "stateMutability": "view",
      "type": "function"
    }
  ],
  "bytecode": "0x608060405234801561001057600080fd5b50613e81806100206000396000f3fe608060405234801561001057600080fd5b50600436106100a95760003560e01c806399a0f0af1161007157806399a0f0af14610162578063b45bd5e51461017e578063b8025b571461019a578063bd9e0145146101b6578063c647191b146101d2578063e2e35504146101f0576100a9565b8063162f7f7c146100ae5780635d591848146100ca57806372136b70146100e6578063736e49b214610102578063794758be14610132575b600080fd5b6100c860048036036100c39190810190612f36565b61020c565b005b6100e460048036036100df9190810190612ff6565b610363565b005b61010060048036036100fb9190810190613122565b6104b4565b005b61011c60048036036101179190810190612f36565b610933565b6040516101299190613b99565b60405180910390f35b61014c60048036036101479190810190612f36565b610d06565b6040516101599190613bbb565b60405180910390f35b61017c60048036036101779190810190612f77565b611a94565b005b61019860048036036101939190810190612f36565b611c4f565b005b6101b460048036036101af9190810190613062565b611da6565b005b6101d060048036036101cb91908101906130ce565b611fe1565b005b6101da6120f6565b6040516101e79190613962565b60405180910390f35b61020a600480360361020591908101906130ce565b61221c565b005b803373ffffffffffffffffffffffffffffffffffffffff16600082604051610234919061394b565b908152602001604051809103902060000160010160009054906101000a900473ffffffffffffffffffffffffffffffffffffffff1673ffffffffffffffffffffffffffffffffffffffff16146102bf576040517f08c379a00000000000000000000000000000000000000000000000000000000081526004016102b690613b79565b60405180910390fd5b60036000836040516102d1919061394b565b908152602001604051809103902060130160006101000a81548160ff021916908360038111156102fd57fe5b021790555042600083604051610313919061394b565b9081526020016040518091039020601701819055507f9bb5842d229eac67f028830d67e443a330e336630ba1212693461b1b691e20b88260405161035791906139db565b60405180910390a15050565b813373ffffffffffffffffffffffffffffffffffffffff1660008260405161038b919061394b565b908152602001604051809103902060000160010160009054906101000a900473ffffffffffffffffffffffffffffffffffffffff1673ffffffffffffffffffffffffffffffffffffffff1614610416576040517f08c379a000000000000000000000000000000000000000000000000000000000815260040161040d90613b79565b60405180910390fd5b81600084604051610427919061394b565b90815260200160405180910390206007016000016000820151816000019080519060200190610457929190612331565b506020820151816001019080519060200190610474929190612331565b509050507f9bb5842d229eac67f028830d67e443a330e336630ba1212693461b1b691e20b8836040516104a79190613a45565b60405180910390a1505050565b8060608160000151600001519050600060038111156104cf57fe5b6000826040516104df919061394b565b908152602001604051809103902060130160009054906101000a900460ff16600381111561050957fe5b14610549576040517f08c379a000000000000000000000000000000000000000000000000000000000815260040161054090613b39565b60405180910390fd5b6060836000015160000151905083600082604051610567919061394b565b9081526020016040518091039020600082015181600001600082015181600001908051906020019061059a929190612331565b5060208201518160010160006101000a81548173ffffffffffffffffffffffffffffffffffffffff021916908373ffffffffffffffffffffffffffffffffffffffff16021790555060408201518160020160006101000a81548173ffffffffffffffffffffffffffffffffffffffff021916908373ffffffffffffffffffffffffffffffffffffffff1602179055506060820151816003019080519060200190610645929190612331565b506080820151816004019080519060200190610662929190612331565b5060a082015181600501908051906020019061067f929190612331565b5060c082015181600601908051906020019061069c929190612331565b50505060208201518160070160008201518160000160008201518160000190805190602001906106cd929190612331565b5060208201518160010190805190602001906106ea929190612331565b50505060208201518160020160008201518160000190805190602001906107129291906123b1565b50602082015181600101908051906020019061072f929190612331565b50604082015181600201908051906020019061074c929190612331565b506060820151816003019080519060200190610769929190612331565b506080820151816004019080519060200190610786929190612331565b5060a08201518160050190805190602001906107a39291906123b1565b5060c08201518160060190805190602001906107c0929190612331565b5060e08201518160070190805190602001906107dd929190612331565b506101008201518160080190805190602001906107fb929190612331565b50610120820151816009019080519060200190610819929190612331565b505050505060408201518160130160006101000a81548160ff0219169083600381111561084257fe5b0217905550606082015181601401556080820151816015015560a0820151816016015560c082015181601701559050506001600085600001516020015173ffffffffffffffffffffffffffffffffffffffff1673ffffffffffffffffffffffffffffffffffffffff1681526020019081526020016000208190806001815401808255809150509060018203906000526020600020016000909192909190915090805190602001906108f4929190612411565b50507f0c5354bce940f3374f3999939428ffc2ba430816423bba0c70c7e25c913915f1816040516109259190613984565b60405180910390a150505050565b61093b612491565b816000600381111561094957fe5b600082604051610959919061394b565b908152602001604051809103902060130160009054906101000a900460ff16600381111561098357fe5b14156109c4576040517f08c379a00000000000000000000000000000000000000000000000000000000081526004016109bb90613b19565b60405180910390fd5b82600260038111156109d257fe5b6000826040516109e2919061394b565b908152602001604051809103902060130160009054906101000a900460ff166003811115610a0c57fe5b14610a4c576040517f08c379a0000000000000000000000000000000000000000000000000000000008152600401610a4390613b59565b60405180910390fd5b60008085604051610a5d919061394b565b90815260200160405180910390206015015490506060600086604051610a83919061394b565b90815260200160405180910390206007016002016005018281548110610aa557fe5b906000526020600020018054600181600116156101000203166002900480601f016020809104026020016040519081016040528092919081815260200182805460018160011615610100020316600290048015610b435780601f10610b1857610100808354040283529160200191610b43565b820191906000526020600020905b815481529060010190602001808311610b2657829003601f168201915b505050505090506060600087604051610b5c919061394b565b90815260200160405180910390206007016002016006018054600181600116156101000203166002900480601f016020809104026020016040519081016040528092919081815260200182805460018160011615610100020316600290048015610c075780601f10610bdc57610100808354040283529160200191610c07565b820191906000526020600020905b815481529060010190602001808311610bea57829003601f168201915b505050505090506060600088604051610c20919061394b565b90815260200160405180910390206007016002016004018054600181600116156101000203166002900480601f016020809104026020016040519081016040528092919081815260200182805460018160011615610100020316600290048015610ccb5780601f10610ca057610100808354040283529160200191610ccb565b820191906000526020600020905b815481529060010190602001808311610cae57829003601f168201915b50505050509050610cda612491565b604051806060016040528083815260200185815260200184815250905080975050505050505050919050565b610d0e6124b2565b813373ffffffffffffffffffffffffffffffffffffffff16600082604051610d36919061394b565b908152602001604051809103902060000160010160009054906101000a900473ffffffffffffffffffffffffffffffffffffffff1673ffffffffffffffffffffffffffffffffffffffff1614610dc1576040517f08c379a0000000000000000000000000000000000000000000000000000000008152600401610db890613b79565b60405180910390fd5b600083604051610dd1919061394b565b90815260200160405180910390206040518060e0016040529081600082016040518060e0016040529081600082018054600181600116156101000203166002900480601f016020809104026020016040519081016040528092919081815260200182805460018160011615610100020316600290048015610e935780601f10610e6857610100808354040283529160200191610e93565b820191906000526020600020905b815481529060010190602001808311610e7657829003601f168201915b505050505081526020016001820160009054906101000a900473ffffffffffffffffffffffffffffffffffffffff1673ffffffffffffffffffffffffffffffffffffffff1673ffffffffffffffffffffffffffffffffffffffff1681526020016002820160009054906101000a900473ffffffffffffffffffffffffffffffffffffffff1673ffffffffffffffffffffffffffffffffffffffff1673ffffffffffffffffffffffffffffffffffffffff168152602001600382018054600181600116156101000203166002900480601f016020809104026020016040519081016040528092919081815260200182805460018160011615610100020316600290048015610fe15780601f10610fb657610100808354040283529160200191610fe1565b820191906000526020600020905b815481529060010190602001808311610fc457829003601f168201915b50505050508152602001600482018054600181600116156101000203166002900480601f0160208091040260200160405190810160405280929190818152602001828054600181600116156101000203166002900480156110835780601f1061105857610100808354040283529160200191611083565b820191906000526020600020905b81548152906001019060200180831161106657829003601f168201915b50505050508152602001600582018054600181600116156101000203166002900480601f0160208091040260200160405190810160405280929190818152602001828054600181600116156101000203166002900480156111255780601f106110fa57610100808354040283529160200191611125565b820191906000526020600020905b81548152906001019060200180831161110857829003601f168201915b50505050508152602001600682018054600181600116156101000203166002900480601f0160208091040260200160405190810160405280929190818152602001828054600181600116156101000203166002900480156111c75780601f1061119c576101008083540402835291602001916111c7565b820191906000526020600020905b8154815290600101906020018083116111aa57829003601f168201915b50505050508152505081526020016007820160405180604001604052908160008201604051806040016040529081600082018054600181600116156101000203166002900480601f01602080910402602001604051908101604052809291908181526020018280546001816001161561010002031660029004801561128d5780601f106112625761010080835404028352916020019161128d565b820191906000526020600020905b81548152906001019060200180831161127057829003601f168201915b50505050508152602001600182018054600181600116156101000203166002900480601f01602080910402602001604051908101604052809291908181526020018280546001816001161561010002031660029004801561132f5780601f106113045761010080835404028352916020019161132f565b820191906000526020600020905b81548152906001019060200180831161131257829003601f168201915b5050505050815250508152602001600282016040518061014001604052908160008201805480602002602001604051908101604052809291908181526020016000905b8282101561142e578382906000526020600020018054600181600116156101000203166002900480601f01602080910402602001604051908101604052809291908181526020018280546001816001161561010002031660029004801561141a5780601f106113ef5761010080835404028352916020019161141a565b820191906000526020600020905b8154815290600101906020018083116113fd57829003601f168201915b505050505081526020019060010190611372565b505050508152602001600182018054600181600116156101000203166002900480601f0160208091040260200160405190810160405280929190818152602001828054600181600116156101000203166002900480156114cf5780601f106114a4576101008083540402835291602001916114cf565b820191906000526020600020905b8154815290600101906020018083116114b257829003601f168201915b50505050508152602001600282018054600181600116156101000203166002900480601f0160208091040260200160405190810160405280929190818152602001828054600181600116156101000203166002900480156115715780601f1061154657610100808354040283529160200191611571565b820191906000526020600020905b81548152906001019060200180831161155457829003601f168201915b50505050508152602001600382018054600181600116156101000203166002900480601f0160208091040260200160405190810160405280929190818152602001828054600181600116156101000203166002900480156116135780601f106115e857610100808354040283529160200191611613565b820191906000526020600020905b8154815290600101906020018083116115f657829003601f168201915b50505050508152602001600482018054600181600116156101000203166002900480601f0160208091040260200160405190810160405280929190818152602001828054600181600116156101000203166002900480156116b55780601f1061168a576101008083540402835291602001916116b5565b820191906000526020600020905b81548152906001019060200180831161169857829003601f168201915b5050505050815260200160058201805480602002602001604051908101604052809291908181526020016000905b8282101561179f578382906000526020600020018054600181600116156101000203166002900480601f01602080910402602001604051908101604052809291908181526020018280546001816001161561010002031660029004801561178b5780601f106117605761010080835404028352916020019161178b565b820191906000526020600020905b81548152906001019060200180831161176e57829003601f168201915b5050505050815260200190600101906116e3565b505050508152602001600682018054600181600116156101000203166002900480601f0160208091040260200160405190810160405280929190818152602001828054600181600116156101000203166002900480156118405780601f1061181557610100808354040283529160200191611840565b820191906000526020600020905b81548152906001019060200180831161182357829003601f168201915b50505050508152602001600782018054600181600116156101000203166002900480601f0160208091040260200160405190810160405280929190818152602001828054600181600116156101000203166002900480156118e25780601f106118b7576101008083540402835291602001916118e2565b820191906000526020600020905b8154815290600101906020018083116118c557829003601f168201915b50505050508152602001600882018054600181600116156101000203166002900480601f0160208091040260200160405190810160405280929190818152602001828054600181600116156101000203166002900480156119845780601f1061195957610100808354040283529160200191611984565b820191906000526020600020905b81548152906001019060200180831161196757829003601f168201915b50505050508152602001600982018054600181600116156101000203166002900480601f016020809104026020016040519081016040528092919081815260200182805460018160011615610100020316600290048015611a265780601f106119fb57610100808354040283529160200191611a26565b820191906000526020600020905b815481529060010190602001808311611a0957829003601f168201915b5050505050815250508152505081526020016013820160009054906101000a900460ff166003811115611a5557fe5b6003811115611a6057fe5b8152602001601482015481526020016015820154815260200160168201548152602001601782015481525050915050919050565b823373ffffffffffffffffffffffffffffffffffffffff16600082604051611abc919061394b565b908152602001604051809103902060000160010160009054906101000a900473ffffffffffffffffffffffffffffffffffffffff1673ffffffffffffffffffffffffffffffffffffffff1614611b47576040517f08c379a0000000000000000000000000000000000000000000000000000000008152600401611b3e90613b79565b60405180910390fd5b6002600085604051611b59919061394b565b908152602001604051809103902060130160006101000a81548160ff02191690836003811115611b8557fe5b021790555042600085604051611b9b919061394b565b90815260200160405180910390206016018190555082600085604051611bc1919061394b565b90815260200160405180910390206007016002016009019080519060200190611beb929190612411565b5081600085604051611bfd919061394b565b9081526020016040518091039020601401819055507f9bb5842d229eac67f028830d67e443a330e336630ba1212693461b1b691e20b884604051611c419190613ae4565b60405180910390a150505050565b803373ffffffffffffffffffffffffffffffffffffffff16600082604051611c77919061394b565b908152602001604051809103902060000160010160009054906101000a900473ffffffffffffffffffffffffffffffffffffffff1673ffffffffffffffffffffffffffffffffffffffff1614611d02576040517f08c379a0000000000000000000000000000000000000000000000000000000008152600401611cf990613b79565b60405180910390fd5b6001600083604051611d14919061394b565b908152602001604051809103902060130160006101000a81548160ff02191690836003811115611d4057fe5b021790555060008083604051611d56919061394b565b9081526020016040518091039020601401819055507f9bb5842d229eac67f028830d67e443a330e336630ba1212693461b1b691e20b882604051611d9a91906139a6565b60405180910390a15050565b813373ffffffffffffffffffffffffffffffffffffffff16600082604051611dce919061394b565b908152602001604051809103902060000160010160009054906101000a900473ffffffffffffffffffffffffffffffffffffffff1673ffffffffffffffffffffffffffffffffffffffff1614611e59576040517f08c379a0000000000000000000000000000000000000000000000000000000008152600401611e5090613b79565b60405180910390fd5b81600084604051611e6a919061394b565b90815260200160405180910390206007016002016000820151816000019080519060200190611e9a9291906123b1565b506020820151816001019080519060200190611eb7929190612331565b506040820151816002019080519060200190611ed4929190612331565b506060820151816003019080519060200190611ef1929190612331565b506080820151816004019080519060200190611f0e929190612331565b5060a0820151816005019080519060200190611f2b9291906123b1565b5060c0820151816006019080519060200190611f48929190612331565b5060e0820151816007019080519060200190611f65929190612331565b50610100820151816008019080519060200190611f83929190612331565b50610120820151816009019080519060200190611fa1929190612331565b509050507f9bb5842d229eac67f028830d67e443a330e336630ba1212693461b1b691e20b883604051611fd49190613a10565b60405180910390a1505050565b813373ffffffffffffffffffffffffffffffffffffffff16600082604051612009919061394b565b908152602001604051809103902060000160010160009054906101000a900473ffffffffffffffffffffffffffffffffffffffff1673ffffffffffffffffffffffffffffffffffffffff1614612094576040517f08c379a000000000000000000000000000000000000000000000000000000000815260040161208b90613b79565b60405180910390fd5b816000846040516120a5919061394b565b9081526020016040518091039020601401819055507f9bb5842d229eac67f028830d67e443a330e336630ba1212693461b1b691e20b8836040516120e99190613a7a565b60405180910390a1505050565b6060600160003373ffffffffffffffffffffffffffffffffffffffff1673ffffffffffffffffffffffffffffffffffffffff168152602001908152602001600020805480602002602001604051908101604052809291908181526020016000905b82821015612213578382906000526020600020018054600181600116156101000203166002900480601f0160208091040260200160405190810160405280929190818152602001828054600181600116156101000203166002900480156121ff5780601f106121d4576101008083540402835291602001916121ff565b820191906000526020600020905b8154815290600101906020018083116121e257829003601f168201915b505050505081526020019060010190612157565b50505050905090565b813373ffffffffffffffffffffffffffffffffffffffff16600082604051612244919061394b565b908152602001604051809103902060000160020160009054906101000a900473ffffffffffffffffffffffffffffffffffffffff1673ffffffffffffffffffffffffffffffffffffffff16146122cf576040517f08c379a00000000000000000000000000000000000000000000000000000000081526004016122c690613b79565b60405180910390fd5b816000846040516122e0919061394b565b9081526020016040518091039020601501819055507f9bb5842d229eac67f028830d67e443a330e336630ba1212693461b1b691e20b8836040516123249190613aaf565b60405180910390a1505050565b828054600181600116156101000203166002900490600052602060002090601f016020900481019282601f1061237257805160ff19168380011785556123a0565b828001600101855582156123a0579182015b8281111561239f578251825591602001919060010190612384565b5b5090506123ad9190612506565b5090565b828054828255906000526020600020908101928215612400579160200282015b828111156123ff5782518290805190602001906123ef929190612331565b50916020019190600101906123d1565b5b50905061240d919061252b565b5090565b828054600181600116156101000203166002900490600052602060002090601f016020900481019282601f1061245257805160ff1916838001178555612480565b82800160010185558215612480579182015b8281111561247f578251825591602001919060010190612464565b5b50905061248d9190612506565b5090565b60405180606001604052806060815260200160608152602001606081525090565b6040518060e001604052806124c5612557565b81526020016124d26125c0565b8152602001600060038111156124e457fe5b8152602001600081526020016000815260200160008152602001600081525090565b61252891905b8082111561252457600081600090555060010161250c565b5090565b90565b61255491905b80821115612550576000818161254791906125e6565b50600101612531565b5090565b90565b6040518060e0016040528060608152602001600073ffffffffffffffffffffffffffffffffffffffff168152602001600073ffffffffffffffffffffffffffffffffffffffff168152602001606081526020016060815260200160608152602001606081525090565b60405180604001604052806125d361262e565b81526020016125e0612648565b81525090565b50805460018160011615610100020316600290046000825580601f1061260c575061262b565b601f01602090049060005260206000209081019061262a9190612506565b5b50565b604051806040016040528060608152602001606081525090565b604051806101400160405280606081526020016060815260200160608152602001606081526020016060815260200160608152602001606081526020016060815260200160608152602001606081525090565b6000813590506126aa81613e00565b92915050565b600082601f8301126126c157600080fd5b81356126d46126cf82613c0a565b613bdd565b9150818183526020840193506020810190508360005b8381101561271a57813586016127008882612739565b8452602084019350602083019250506001810190506126ea565b5050505092915050565b60008135905061273381613e17565b92915050565b600082601f83011261274a57600080fd5b813561275d61275882613c32565b613bdd565b9150808252602083016020830185838301111561277957600080fd5b612784838284613da0565b50505092915050565b600082601f83011261279e57600080fd5b81356127b16127ac82613c5e565b613bdd565b915080825260208301602083018583830111156127cd57600080fd5b6127d8838284613da0565b50505092915050565b6000604082840312156127f357600080fd5b6127fd6040613bdd565b9050600082013567ffffffffffffffff81111561281957600080fd5b61282584828501612739565b600083015250602082013567ffffffffffffffff81111561284557600080fd5b61285184828501612739565b60208301525092915050565b60006040828403121561286f57600080fd5b6128796040613bdd565b9050600082013567ffffffffffffffff81111561289557600080fd5b6128a184828501612739565b600083015250602082013567ffffffffffffffff8111156128c157600080fd5b6128cd84828501612739565b60208301525092915050565b600060e082840312156128eb57600080fd5b6128f560e0613bdd565b9050600082013567ffffffffffffffff81111561291157600080fd5b61291d84828501612739565b60008301525060206129318482850161269b565b60208301525060406129458482850161269b565b604083015250606082013567ffffffffffffffff81111561296557600080fd5b61297184828501612739565b606083015250608082013567ffffffffffffffff81111561299157600080fd5b61299d84828501612739565b60808301525060a082013567ffffffffffffffff8111156129bd57600080fd5b6129c984828501612739565b60a08301525060c082013567ffffffffffffffff8111156129e957600080fd5b6129f584828501612739565b60c08301525092915050565b60006101408284031215612a1457600080fd5b612a1f610140613bdd565b9050600082013567ffffffffffffffff811115612a3b57600080fd5b612a47848285016126b0565b600083015250602082013567ffffffffffffffff811115612a6757600080fd5b612a7384828501612739565b602083015250604082013567ffffffffffffffff811115612a9357600080fd5b612a9f84828501612739565b604083015250606082013567ffffffffffffffff811115612abf57600080fd5b612acb84828501612739565b606083015250608082013567ffffffffffffffff811115612aeb57600080fd5b612af784828501612739565b60808301525060a082013567ffffffffffffffff811115612b1757600080fd5b612b23848285016126b0565b60a08301525060c082013567ffffffffffffffff811115612b4357600080fd5b612b4f84828501612739565b60c08301525060e082013567ffffffffffffffff811115612b6f57600080fd5b612b7b84828501612739565b60e08301525061010082013567ffffffffffffffff811115612b9c57600080fd5b612ba884828501612739565b6101008301525061012082013567ffffffffffffffff811115612bca57600080fd5b612bd684828501612739565b6101208301525092915050565b60006101408284031215612bf657600080fd5b612c01610140613bdd565b9050600082013567ffffffffffffffff811115612c1d57600080fd5b612c29848285016126b0565b600083015250602082013567ffffffffffffffff811115612c4957600080fd5b612c5584828501612739565b602083015250604082013567ffffffffffffffff811115612c7557600080fd5b612c8184828501612739565b604083015250606082013567ffffffffffffffff811115612ca157600080fd5b612cad84828501612739565b606083015250608082013567ffffffffffffffff811115612ccd57600080fd5b612cd984828501612739565b60808301525060a082013567ffffffffffffffff811115612cf957600080fd5b612d05848285016126b0565b60a08301525060c082013567ffffffffffffffff811115612d2557600080fd5b612d3184828501612739565b60c08301525060e082013567ffffffffffffffff811115612d5157600080fd5b612d5d84828501612739565b60e08301525061010082013567ffffffffffffffff811115612d7e57600080fd5b612d8a84828501612739565b6101008301525061012082013567ffffffffffffffff811115612dac57600080fd5b612db884828501612739565b6101208301525092915050565b600060408284031215612dd757600080fd5b612de16040613bdd565b9050600082013567ffffffffffffffff811115612dfd57600080fd5b612e09848285016127e1565b600083015250602082013567ffffffffffffffff811115612e2957600080fd5b612e3584828501612a01565b60208301525092915050565b600060e08284031215612e5357600080fd5b612e5d60e0613bdd565b9050600082013567ffffffffffffffff811115612e7957600080fd5b612e85848285016128d9565b600083015250602082013567ffffffffffffffff811115612ea557600080fd5b612eb184828501612dc5565b6020830152506040612ec584828501612724565b6040830152506060612ed984828501612f21565b6060830152506080612eed84828501612f21565b60808301525060a0612f0184828501612f21565b60a08301525060c0612f1584828501612f21565b60c08301525092915050565b600081359050612f3081613e27565b92915050565b600060208284031215612f4857600080fd5b600082013567ffffffffffffffff811115612f6257600080fd5b612f6e8482850161278d565b91505092915050565b600080600060608486031215612f8c57600080fd5b600084013567ffffffffffffffff811115612fa657600080fd5b612fb28682870161278d565b935050602084013567ffffffffffffffff811115612fcf57600080fd5b612fdb8682870161278d565b9250506040612fec86828701612f21565b9150509250925092565b6000806040838503121561300957600080fd5b600083013567ffffffffffffffff81111561302357600080fd5b61302f8582860161278d565b925050602083013567ffffffffffffffff81111561304c57600080fd5b6130588582860161285d565b9150509250929050565b6000806040838503121561307557600080fd5b600083013567ffffffffffffffff81111561308f57600080fd5b61309b8582860161278d565b925050602083013567ffffffffffffffff8111156130b857600080fd5b6130c485828601612be3565b9150509250929050565b600080604083850312156130e157600080fd5b600083013567ffffffffffffffff8111156130fb57600080fd5b6131078582860161278d565b925050602061311885828601612f21565b9150509250929050565b60006020828403121561313457600080fd5b600082013567ffffffffffffffff81111561314e57600080fd5b61315a84828501612e41565b91505092915050565b600061316f83836132e9565b905092915050565b61318081613d3f565b82525050565b600061319182613cb5565b61319b8185613d01565b9350836020820285016131ad85613c9a565b8060005b858110156131e957848403895281516131ca8582613163565b94506131d583613ce3565b925060208a019950506001810190506131b1565b50829750879550505050505092915050565b600061320682613caa565b6132108185613cf0565b93508360208202850161322285613c8a565b8060005b8581101561325e578484038952815161323f8582613163565b945061324a83613cd6565b925060208a01995050600181019050613226565b50829750879550505050505092915050565b61327981613d8e565b82525050565b600061328a82613ccb565b6132948185613d23565b93506132a4818560208601613daf565b6132ad81613de2565b840191505092915050565b60006132c382613ccb565b6132cd8185613d34565b93506132dd818560208601613daf565b80840191505092915050565b60006132f482613cc0565b6132fe8185613d12565b935061330e818560208601613daf565b61331781613de2565b840191505092915050565b600061332f601683613d23565b91507f5365727669636520646f6573206e6f74206578697374000000000000000000006000830152602082019050919050565b600061336f600d83613d23565b91507f534552564943455f5041555345000000000000000000000000000000000000006000830152602082019050919050565b60006133af600c83613d23565b91507f534552564943455f53544f5000000000000000000000000000000000000000006000830152602082019050919050565b60006133ef601383613d23565b91507f534552564943455f4b554245434f4e54455854000000000000000000000000006000830152602082019050919050565b600061342f601283613d23565b91507f416c7265616479207265676973746572656400000000000000000000000000006000830152602082019050919050565b600061346f601183613d23565b91507f534552564943455f434f4e5441494e45520000000000000000000000000000006000830152602082019050919050565b60006134af601083613d23565b91507f534552564943455f5245504c49434153000000000000000000000000000000006000830152602082019050919050565b60006134ef601083613d23565b91507f49742773206e6f742072756e6e696e67000000000000000000000000000000006000830152602082019050919050565b600061352f601083613d23565b91507f534552564943455f4c4f434154494f4e000000000000000000000000000000006000830152602082019050919050565b600061356f600d83613d23565b91507f534552564943455f5354415254000000000000000000000000000000000000006000830152602082019050919050565b60006135af600e83613d23565b91507f4e6f7420617574686f72697a65640000000000000000000000000000000000006000830152602082019050919050565b600060408301600083015184820360008601526135ff82826132e9565b9150506020830151848203602086015261361982826132e9565b9150508091505092915050565b6000606083016000830151848203600086015261364382826132e9565b9150506020830151848203602086015261365d82826132e9565b9150506040830151848203604086015261367782826132e9565b9150508091505092915050565b600060e08301600083015184820360008601526136a182826132e9565b91505060208301516136b66020860182613177565b5060408301516136c96040860182613177565b50606083015184820360608601526136e182826132e9565b915050608083015184820360808601526136fb82826132e9565b91505060a083015184820360a086015261371582826132e9565b91505060c083015184820360c086015261372f82826132e9565b9150508091505092915050565b600061014083016000830151848203600086015261375a82826131fb565b9150506020830151848203602086015261377482826132e9565b9150506040830151848203604086015261378e82826132e9565b915050606083015184820360608601526137a882826132e9565b915050608083015184820360808601526137c282826132e9565b91505060a083015184820360a08601526137dc82826131fb565b91505060c083015184820360c08601526137f682826132e9565b91505060e083015184820360e086015261381082826132e9565b91505061010083015184820361010086015261382c82826132e9565b91505061012083015184820361012086015261384882826132e9565b9150508091505092915050565b6000604083016000830151848203600086015261387282826135e2565b9150506020830151848203602086015261388c828261373c565b9150508091505092915050565b600060e08301600083015184820360008601526138b68282613684565b915050602083015184820360208601526138d08282613855565b91505060408301516138e56040860182613270565b5060608301516138f8606086018261393c565b50608083015161390b608086018261393c565b5060a083015161391e60a086018261393c565b5060c083015161393160c086018261393c565b508091505092915050565b61394581613d84565b82525050565b600061395782846132b8565b915081905092915050565b6000602082019050818103600083015261397c8184613186565b905092915050565b6000602082019050818103600083015261399e818461327f565b905092915050565b600060408201905081810360008301526139c0818461327f565b905081810360208301526139d381613362565b905092915050565b600060408201905081810360008301526139f5818461327f565b90508181036020830152613a08816133a2565b905092915050565b60006040820190508181036000830152613a2a818461327f565b90508181036020830152613a3d816133e2565b905092915050565b60006040820190508181036000830152613a5f818461327f565b90508181036020830152613a7281613462565b905092915050565b60006040820190508181036000830152613a94818461327f565b90508181036020830152613aa7816134a2565b905092915050565b60006040820190508181036000830152613ac9818461327f565b90508181036020830152613adc81613522565b905092915050565b60006040820190508181036000830152613afe818461327f565b90508181036020830152613b1181613562565b905092915050565b60006020820190508181036000830152613b3281613322565b9050919050565b60006020820190508181036000830152613b5281613422565b9050919050565b60006020820190508181036000830152613b72816134e2565b9050919050565b60006020820190508181036000830152613b92816135a2565b9050919050565b60006020820190508181036000830152613bb38184613626565b905092915050565b60006020820190508181036000830152613bd58184613899565b905092915050565b6000604051905081810181811067ffffffffffffffff82111715613c0057600080fd5b8060405250919050565b600067ffffffffffffffff821115613c2157600080fd5b602082029050602081019050919050565b600067ffffffffffffffff821115613c4957600080fd5b601f19601f8301169050602081019050919050565b600067ffffffffffffffff821115613c7557600080fd5b601f19601f8301169050602081019050919050565b6000819050602082019050919050565b6000819050602082019050919050565b600081519050919050565b600081519050919050565b600081519050919050565b600081519050919050565b6000602082019050919050565b6000602082019050919050565b600082825260208201905092915050565b600082825260208201905092915050565b600082825260208201905092915050565b600082825260208201905092915050565b600081905092915050565b6000613d4a82613d64565b9050919050565b6000819050613d5f82613df3565b919050565b600073ffffffffffffffffffffffffffffffffffffffff82169050919050565b6000819050919050565b6000613d9982613d51565b9050919050565b82818337600083830152505050565b60005b83811015613dcd578082015181840152602081019050613db2565b83811115613ddc576000848401525b50505050565b6000601f19601f8301169050919050565b60048110613dfd57fe5b50565b613e0981613d3f565b8114613e1457600080fd5b50565b60048110613e2457600080fd5b50565b613e3081613d84565b8114613e3b57600080fd5b5056fea365627a7a723158201a973aa062315d590894395ae1bf15d27fbcc7f82b2e54882267ae2676f75d006c6578706572696d656e74616cf564736f6c63430005100040",
  "source": "pragma solidity >=0.4.22 <0.7.0;\npragma experimental ABIEncoderV2;\n\n\ncontract ServiceRegistry {\n\n    enum State { Null, Ready, Running, Stop }\n\n    struct CurrentLocation{\n      string serviceProtocol;\n      string servicePoint;\n      string servicePort;\n    }\n\n    struct Header{\n        string id;\n        address manager;\n        address serviceAccount;\n        string companyName;\n        string companyEmail;\n        string companyContact;\n        string description;\n    }\n    \n    struct KubeContext{\n        string[] location;\n        string accessToken;\n        string nodeID;\n        string networkID;\n        string serviceProtocol;\n        string[] servicePoints;\n        string servicePort;\n        string nodeMountService;\n        string nodeMountETCD;\n        string secret;  //v2\n    }\n\n    struct Container{\n        string image;\n        string imageAccessUser;\n    }\n    \n    struct Runtime{\n        Container ct;\n        KubeContext kct;\n    }\n    \n    struct Service{\n        Header header;\n        Runtime runtime;\n        State state;\n        uint256 curReplicas;\n        uint256 serviceLocationIndex;\n        uint256 serviceStartTime;\n        uint256 serviceEndTime;\n    }\n    \n    event ChangeService(string serviceID, string changeType);\n    event NewService(string serviceID);\n    \n    mapping (string => Service) services;\n    mapping (address => string[]) managerServiceList; // string[]: array of service name \n    \n    \n    modifier onlyManager(string memory id){\n        require(services[id].header.manager == msg.sender, \"Not authorized\");\n        _;\n    }\n    \n    modifier onlyServiceAccount(string memory id){\n        require(services[id].header.serviceAccount == msg.sender, \"Not authorized\");\n        _;\n    }\n    \n    modifier hasNotService(Service memory service){\n        string memory id = service.header.id;\n        require(services[id].state == State.Null, \"Already registered\");\n        _;\n    }\n    \n    modifier hasService(string memory serviceID){\n        require(services[serviceID].state != State.Null, \"Service does not exist\");\n        _;\n    }\n\n    modifier isRunning(string memory serviceID){\n        require(services[serviceID].state == State.Running, \"It's not running\");\n        _;\n    }\n    \n\n    /* Manager service list*/\n    function getServiceList()\n    public view returns(string[] memory)\n    {\n        return managerServiceList[msg.sender];\n    }\n\n\n    /* Service Manager */\n    function register(Service memory service) \n    public hasNotService(service)\n    {\n        string memory id = service.header.id;\n        services[id] = service;\n        managerServiceList[service.header.manager].push(id);\n        emit NewService(id);\n    }\n\n    /* Service Manager-v2 */\n    function startService(string memory id, string memory secret ,uint256 replicas)\n    public onlyManager(id)\n    {\n        services[id].state = State.Running;\n        services[id].serviceStartTime = now;\n        services[id].runtime.kct.secret = secret;\n        services[id].curReplicas = replicas;\n        emit ChangeService(id, \"SERVICE_START\");\n    }\n\n    /* Service Manager-v2 */\n    function updateReplicas(string memory id, uint256 replicas)\n    public onlyManager(id)\n    {\n        services[id].curReplicas = replicas;\n        emit ChangeService(id, \"SERVICE_REPLICAS\");\n    }\n\n    \n    /* Service Manager */\n    function getService(string memory id) \n    public view onlyManager(id)\n    returns (Service memory service)\n    {\n        return services[id];\n    }    \n    \n    /* Service Manager */\n    function updateKubeContext(string memory id, KubeContext memory kubeContext) \n    public onlyManager(id)\n    {\n        services[id].runtime.kct = kubeContext;\n        emit ChangeService(id, \"SERVICE_KUBECONTEXT\");\n    }\n    \n    /* Service Manager */\n    function updateContainer(string memory id, Container memory container) \n    public onlyManager(id)\n    {\n        services[id].runtime.ct = container;\n        emit ChangeService(id, \"SERVICE_CONTAINER\");\n    }\n\n    /* Service Manager-v2 */\n    function pauseService(string memory id)\n    public onlyManager(id)\n    {  \n        services[id].state = State.Ready;\n        services[id].curReplicas = 0;\n        emit ChangeService(id, \"SERVICE_PAUSE\"); \n    }\n    \n    /* Service Manager */\n    function stopService(string memory id) \n    public onlyManager(id)\n    {\n        services[id].state = State.Stop;\n        services[id].serviceEndTime = now;\n        emit ChangeService(id, \"SERVICE_STOP\");\n    }\n    \n    \n    /* Leader Service-v2 */\n    function updateServiceLocation(string memory id, uint256 curIndex) \n    public onlyServiceAccount(id)\n    {\n        services[id].serviceLocationIndex = curIndex;\n        emit ChangeService(id, \"SERVICE_LOCATION\");\n    }\n    \n    \n    /* Service Client */\n    function getServiceLocation(string memory id) \n    public view hasService(id) isRunning(id)\n    returns (CurrentLocation memory location)\n    {\n        uint256 index = services[id].serviceLocationIndex;\n\t    string memory point = services[id].runtime.kct.servicePoints[index];\n\t    string memory port = services[id].runtime.kct.servicePort;\n        string memory protocol = services[id].runtime.kct.serviceProtocol;\n\t    CurrentLocation memory curLocation = CurrentLocation(protocol, point, port);\n        return curLocation;\n    }\n\n}\n\n\n",
  "sourcePath": "/home/pslabmh/Kube-Replica_Research/service-registry/contracts/ServiceRegistry.sol",
  "compiler": {
    "name": "solc",
    "version": "0.5.16+commit.9c3226ce.Emscripten.clang"
  },
  "schemaVersion": "3.3.2",
  "updatedAt": "2020-12-23T12:58:53.204Z",
  "networkType": "ethereum",
  "devdoc": {
    "methods": {}
  },
  "userdoc": {
    "methods": {}
  }
}